{
  "_format": "hh-sol-artifact-1",
  "contractName": "BugSwap",
  "sourceName": "contracts/bugswap.sol",
  "abi": [
    {
      "inputs": [
        {
          "internalType": "address",
          "name": "_tokenA",
          "type": "address"
        },
        {
          "internalType": "address",
          "name": "_tokenB",
          "type": "address"
        }
      ],
      "stateMutability": "nonpayable",
      "type": "constructor"
    },
    {
      "inputs": [],
      "name": "owner",
      "outputs": [
        {
          "internalType": "address",
          "name": "",
          "type": "address"
        }
      ],
      "stateMutability": "view",
      "type": "function"
    },
    {
      "inputs": [
        {
          "internalType": "address",
          "name": "_tokenA",
          "type": "address"
        },
        {
          "internalType": "address",
          "name": "_tokenB",
          "type": "address"
        }
      ],
      "name": "setTokens",
      "outputs": [],
      "stateMutability": "nonpayable",
      "type": "function"
    },
    {
      "inputs": [
        {
          "internalType": "uint256",
          "name": "amountA",
          "type": "uint256"
        }
      ],
      "name": "swap",
      "outputs": [],
      "stateMutability": "nonpayable",
      "type": "function"
    },
    {
      "inputs": [],
      "name": "tokenA",
      "outputs": [
        {
          "internalType": "contract IERC20",
          "name": "",
          "type": "address"
        }
      ],
      "stateMutability": "view",
      "type": "function"
    },
    {
      "inputs": [],
      "name": "tokenB",
      "outputs": [
        {
          "internalType": "contract IERC20",
          "name": "",
          "type": "address"
        }
      ],
      "stateMutability": "view",
      "type": "function"
    }
  ],
  "bytecode": "0x608060405234801561001057600080fd5b506040516109843803806109848339818101604052810190610032919061015e565b816000806101000a81548173ffffffffffffffffffffffffffffffffffffffff021916908373ffffffffffffffffffffffffffffffffffffffff16021790555080600160006101000a81548173ffffffffffffffffffffffffffffffffffffffff021916908373ffffffffffffffffffffffffffffffffffffffff16021790555033600260006101000a81548173ffffffffffffffffffffffffffffffffffffffff021916908373ffffffffffffffffffffffffffffffffffffffff160217905550505061019e565b600080fd5b600073ffffffffffffffffffffffffffffffffffffffff82169050919050565b600061012b82610100565b9050919050565b61013b81610120565b811461014657600080fd5b50565b60008151905061015881610132565b92915050565b60008060408385031215610175576101746100fb565b5b600061018385828601610149565b925050602061019485828601610149565b9150509250929050565b6107d7806101ad6000396000f3fe608060405234801561001057600080fd5b50600436106100575760003560e01c80630fc63d101461005c5780635f64b55b1461007a5780638da5cb5b1461009857806394b918de146100b6578063cbc7854e146100d2575b600080fd5b6100646100ee565b60405161007191906104b9565b60405180910390f35b610082610112565b60405161008f91906104b9565b60405180910390f35b6100a0610138565b6040516100ad91906104f5565b60405180910390f35b6100d060048036038101906100cb919061054b565b61015e565b005b6100ec60048036038101906100e791906105a4565b610325565b005b60008054906101000a900473ffffffffffffffffffffffffffffffffffffffff1681565b600160009054906101000a900473ffffffffffffffffffffffffffffffffffffffff1681565b600260009054906101000a900473ffffffffffffffffffffffffffffffffffffffff1681565b60008054906101000a900473ffffffffffffffffffffffffffffffffffffffff1673ffffffffffffffffffffffffffffffffffffffff166323b872dd3330846040518463ffffffff1660e01b81526004016101bb939291906105f3565b6020604051808303816000875af11580156101da573d6000803e3d6000fd5b505050506040513d601f19601f820116820180604052508101906101fe9190610662565b61023d576040517f08c379a0000000000000000000000000000000000000000000000000000000008152600401610234906106ec565b60405180910390fd5b6000819050600160009054906101000a900473ffffffffffffffffffffffffffffffffffffffff1673ffffffffffffffffffffffffffffffffffffffff1663a9059cbb33836040518363ffffffff1660e01b815260040161029f92919061070c565b6020604051808303816000875af11580156102be573d6000803e3d6000fd5b505050506040513d601f19601f820116820180604052508101906102e29190610662565b610321576040517f08c379a0000000000000000000000000000000000000000000000000000000008152600401610318906106ec565b60405180910390fd5b5050565b600260009054906101000a900473ffffffffffffffffffffffffffffffffffffffff1673ffffffffffffffffffffffffffffffffffffffff163373ffffffffffffffffffffffffffffffffffffffff16146103b5576040517f08c379a00000000000000000000000000000000000000000000000000000000081526004016103ac90610781565b60405180910390fd5b816000806101000a81548173ffffffffffffffffffffffffffffffffffffffff021916908373ffffffffffffffffffffffffffffffffffffffff16021790555080600160006101000a81548173ffffffffffffffffffffffffffffffffffffffff021916908373ffffffffffffffffffffffffffffffffffffffff1602179055505050565b600073ffffffffffffffffffffffffffffffffffffffff82169050919050565b6000819050919050565b600061047f61047a6104758461043a565b61045a565b61043a565b9050919050565b600061049182610464565b9050919050565b60006104a382610486565b9050919050565b6104b381610498565b82525050565b60006020820190506104ce60008301846104aa565b92915050565b60006104df8261043a565b9050919050565b6104ef816104d4565b82525050565b600060208201905061050a60008301846104e6565b92915050565b600080fd5b6000819050919050565b61052881610515565b811461053357600080fd5b50565b6000813590506105458161051f565b92915050565b60006020828403121561056157610560610510565b5b600061056f84828501610536565b91505092915050565b610581816104d4565b811461058c57600080fd5b50565b60008135905061059e81610578565b92915050565b600080604083850312156105bb576105ba610510565b5b60006105c98582860161058f565b92505060206105da8582860161058f565b9150509250929050565b6105ed81610515565b82525050565b600060608201905061060860008301866104e6565b61061560208301856104e6565b61062260408301846105e4565b949350505050565b60008115159050919050565b61063f8161062a565b811461064a57600080fd5b50565b60008151905061065c81610636565b92915050565b60006020828403121561067857610677610510565b5b60006106868482850161064d565b91505092915050565b600082825260208201905092915050565b7f5472616e73666572206661696c65640000000000000000000000000000000000600082015250565b60006106d6600f8361068f565b91506106e1826106a0565b602082019050919050565b60006020820190508181036000830152610705816106c9565b9050919050565b600060408201905061072160008301856104e6565b61072e60208301846105e4565b9392505050565b7f4e6f742074686520636f6e7472616374206f776e657200000000000000000000600082015250565b600061076b60168361068f565b915061077682610735565b602082019050919050565b6000602082019050818103600083015261079a8161075e565b905091905056fea26469706673582212207e66949c734d4259255ac386b575334da795638236c8249cdd3e8b766afe4a7464736f6c634300081b0033",
  "linkReferences": {},
  "deployedLinkReferences": {}
}